:100000000C9462000C948A000C948A000C948A0070
:100010000C948A000C948A000C948A000C948A0038
:100020000C948A000C948A000C948A000C948A0028
:100030000C948A000C948A000C948A000C948A0018
:100040000C9410040C948A000C9480040C945A04B0
:100050000C948A000C948A000C948A000C948A00F8
:100060000C948A000C948A000000000023002600F3
:10007000290000000000240027002A0000000000E2
:10008000250028002B0004040404040404040202D4
:100090000202020203030303030301020408102007
:1000A0004080010204081020010204081020000012
:1000B0000008000201000003040700000000000027
:1000C00000007C0811241FBECFEFD8E0DEBFCDBFFB
:1000D00011E0A0E0B1E0E8EAF6E102C005900D927F
:1000E000A637B107D9F722E0A6E7B1E001C01D921B
:1000F000A137B207E1F710E0C2E6D0E004C02197D3
:10010000FE010E94470BC136D107C9F70E94B20415
:100110000C94520B0C940000833081F028F4813051
:1001200099F08230A1F008958730A9F08830B9F0B5
:100130008430D1F4809180008F7D03C08091800055
:100140008F7780938000089584B58F7702C084B53F
:100150008F7D84BD08958091B0008F7703C080911A
:10016000B0008F7D8093B00008951F93CF93DF93ED
:10017000282F30E0F901E255FF4F8491F901E6564E
:10018000FF4FD491F901EA57FF4FC491CC23C9F036
:10019000162F81110E948C00EC2FF0E0EE0FFF1F54
:1001A000E458FF4FA591B4918FB7F894111105C091
:1001B0009C91ED2FE095E92302C0EC91ED2BEC939F
:1001C0008FBFDF91CF911F910895CF93DF9390E080
:1001D000FC01E656FF4F2491FC01EA57FF4F849142
:1001E000882361F190E0880F991FFC01EE58FF4FC2
:1001F000C591D491FC01E458FF4FA591B4916111D0
:1002000009C09FB7F8948881209582238883EC9158
:100210002E230BC0623061F49FB7F8943881822F8F
:10022000809583238883EC912E2B2C939FBF06C04F
:100230008FB7F894E8812E2B28838FBFDF91CF9161
:1002400008953FB7F8948091D0019091D101A09189
:10025000D201B091D30126B5A89B05C02F3F19F05C
:100260000196A11DB11D3FBFBA2FA92F982F882736
:10027000820F911DA11DB11DBC01CD0142E0660F91
:10028000771F881F991F4A95D1F708958F929F92E3
:10029000AF92BF92CF92DF92EF92FF926B017C01FF
:1002A0000E9421014B015C01C114D104E104F1045D
:1002B000F1F00E942101DC01CB0188199909AA09FA
:1002C000BB09883E9340A105B10570F321E0C21A35
:1002D000D108E108F10888EE880E83E0981EA11C81
:1002E000B11CC114D104E104F10419F7DDCFFF9072
:1002F000EF90DF90CF90BF90AF909F908F90089538
:10030000CF92DF92EF92FF920F931F93CF93DF93E1
:100310006C017A018B01C0E0D0E0CE15DF0589F0D9
:10032000D8016D918D01D601ED91FC910190F08184
:10033000E02DC6010995892B11F47E0102C021969A
:10034000ECCFC701DF91CF911F910F91FF90EF90FC
:10035000DF90CF900895089580E090E00895FC012B
:10036000538D448D252F30E0842F90E0821B930B1A
:10037000541710F0CF96089501970895FC01918DC0
:10038000828D981761F0828DDF01A80FB11D5D96F7
:100390008C91928D9F5F9F73928F90E008958FEF65
:1003A0009FEF0895FC01918D828D981731F0828D19
:1003B000E80FF11D858D90E008958FEF9FEF089570
:1003C000FC01918D228D892F90E0805C9F4F821BD4
:1003D00091098F739927089584ED91E00E94E001BF
:1003E00021E0892B09F420E0822F0895FC01848DFF
:1003F000DF01A80FB11DA35ABF4F2C91848D90E04F
:1004000001968F739927848FA689B7892C93A08929
:10041000B1898C9180648C93938D848D981306C0E0
:100420000288F389E02D80818F7D80830895EF928B
:10043000FF920F931F93CF93DF93EC0181E0888F9E
:100440009B8D8C8D981305C0E889F989808185FD85
:1004500024C0F62E0B8D10E00F5F1F4F0F73112776
:10046000E02E8C8DE8120CC00FB607FCFACFE8899D
:10047000F989808185FFF5CFCE010E94F601F1CF89
:100480008B8DFE01E80FF11DE35AFF4FF0820B8FB9
:10049000EA89FB898081806207C0EE89FF896083D9
:1004A000E889F98980818064808381E090E0DF9130
:1004B000CF911F910F91FF90EF900895CF93DF930D
:1004C000EC01888D8823C9F0EA89FB89808185FD4C
:1004D00005C0A889B9898C9186FD0FC00FB607FCAD
:1004E000F5CF808185FFF2CFA889B9898C9185FFEE
:1004F000EDCFCE010E94F601E7CFDF91CF910895B5
:1005000080E090E0892B29F00E94EC0181110C948D
:10051000000008958EBD00000DB407FEFDCF8EB51E
:100520000895CF93DF93D82FC62F60E087E00E9415
:10053000B50062E070E080E090E00E94460161E07A
:1005400087E00E94B50062E070E080E090E00E94E9
:10055000460160E087E00E94B50062E070E080E064
:1005600090E00E9446018D2F80640E948A0280E004
:100570000E948A028C2F0E948A0262E070E080E072
:1005800090E00E94460161E087E0DF91CF910C94FA
:10059000B500009769F0FC0101900020E9F7319760
:1005A000AF01481B590BBC0184ED91E00C94800114
:1005B00080E090E00895CF93DF930E94C902EC01A0
:1005C00082E191E00E94C9028C0F9D1FDF91CF91C3
:1005D00008958F929F92AF92BF920F931F93CF93E4
:1005E000DF93CDB7DEB7A1970FB6F894DEBF0FBE8D
:1005F000CDBF19A2423008F44AE08E010F5D1F4FB3
:10060000842E912CA12CB12CA50194010E94D30819
:10061000E62FB901CA0101501109EA3014F4E05D76
:1006200001C0E95CD801EC93232B242B252B61F727
:10063000C8010E94C902A1960FB6F894DEBF0FBE92
:10064000CDBFDF91CF911F910F91BF90AF909F9041
:100650008F9008954F925F926F927F928F929F92A8
:10066000AF92BF92CF92DF92EF92FF926B017C012B
:10067000B42E9B01AC010E94420B882319F085E146
:1006800091E027C026013701E89477F82FEF3FEF7C
:100690004FE75FE7C301B2010E94420B81110DC019
:1006A0002FEF3FEF4FE75FE7C301B2010E947109EF
:1006B00018161CF489E191E00CC02FEF3FEF4FE7D3
:1006C0005FE4C701B6010E94D00A181684F48DE1D8
:1006D00091E0FF90EF90DF90CF90BF90AF909F9010
:1006E0008F907F906F905F904F900C94C9022FEF86
:1006F0003FEF4FE75FECC701B6010E94710987FD2C
:10070000E6CF20E030E0A901C701B6010E947109DF
:1007100087FF11C0E091D401F091D5010190F081E3
:10072000E02D6DE284ED91E009954C01F7FAF0942B
:10073000F7F8F09402C0812C912CA12C60E070E0BD
:1007400080E09FE3AB1441F020E030E040E251E470
:100750000E947609A394F6CF9B01AC01C701B601B4
:100760000E9405092B013C010E94EF096B017C01ED
:100770000E941E0A9B01AC01C301B2010E94040940
:100780002B013C014AE0C701B6010E94E9027C014D
:10079000E80CF91CBB2069F0E091D401F091D5017F
:1007A0000190F081E02D6EE284ED91E00995E80E74
:1007B000F91EDB2CDD2021F120E030E040E251E4A5
:1007C000C301B2010E94D50A2B013C010E94EF092E
:1007D0004B01A12CB12C4AE0C501B4010E94E902F1
:1007E000E80EF91EC501B4010E941E0A9B01AC016E
:1007F000C301B2010E9404092B013C01DA94DACF53
:10080000C701FF90EF90DF90CF90BF90AF909F9087
:100810008F907F906F905F904F9008950E944D0B46
:100820001F920F920FB60F9211242F933F938F9325
:100830009F93AF93BF938091CC019091CD01A091F4
:10084000CE01B091CF013091CB0123E0230F2D37A2
:1008500020F40196A11DB11D05C026E8230F0296C4
:10086000A11DB11D2093CB018093CC019093CD01AC
:10087000A093CE01B093CF018091D0019091D1018E
:10088000A091D201B091D3010196A11DB11D809319
:10089000D0019093D101A093D201B093D301BF9125
:1008A000AF919F918F913F912F910F900FBE0F901D
:1008B0001F9018951F920F920FB60F9211242F932D
:1008C0003F934F935F936F937F938F939F93AF93D8
:1008D000BF93EF93FF9384ED91E00E94F601FF91A7
:1008E000EF91BF91AF919F918F917F916F915F91A8
:1008F0004F913F912F910F900FBE0F901F90189521
:100900001F920F920FB60F9211242F938F939F93E4
:10091000EF93FF93E091E401F091E5018081E09194
:10092000EA01F091EB0182FD12C090818091ED010E
:100930008F5F8F732091EE01821751F0E091ED01EE
:10094000F0E0EC52FE4F958F8093ED0101C0808165
:10095000FF91EF919F918F912F910F900FBE0F906C
:100960001F901895CF93DF9300D0CDB7DEB7789462
:1009700084B5826084BD84B5816084BD85B58260A4
:1009800085BD85B5816085BD80916E008160809355
:100990006E001092810080918100826080938100BE
:1009A00080918100816080938100809180008160CE
:1009B000809380008091B10084608093B100809129
:1009C000B00081608093B00080917A008460809351
:1009D0007A0080917A00826080937A0080917A0018
:1009E000816080937A0080917A00806880937A0099
:1009F0001092C10060E086E00E94E50061E087E0BF
:100A00000E94E50061E085E00E94E50061E084E08D
:100A10000E94E500E091E401F091E50182E080832D
:100A2000E091E001F091E1011082E091E201F091AA
:100A3000E3018FEC80831092EC01E091E801F091EA
:100A4000E90186E08083E091E601F091E701808191
:100A500080618083E091E601F091E7018081886008
:100A60008083E091E601F091E701808180688083D6
:100A7000E091E601F091E70180818F7D80831FB7CF
:100A8000F89480917801811127C0E0E9F0E0849129
:100A9000E4EAF0E09491E82FF0E0EE0FFF1FEE584B
:100AA000FF4FA591B491EC91E92321F461E08AE034
:100AB0000E94B50061E08AE00E94E5008CB580618B
:100AC0008CBD8CB580648CBD61E08DE00E94E5003A
:100AD00061E08BE00E94E500809178018F5F809358
:100AE00078011FBF8CB58F7D8CBD8CB5837F8460F2
:100AF0008CBD8CB58C7F81608CBD8DB581608DBDCA
:100B000061E084E00E94B50064E670E080E090E07F
:100B10000E94460160E084E00E94B50064E670E057
:100B200080E090E00E94460161E084E00E94B50010
:100B300064E670E080E090E00E94460164E670E0C8
:100B400080E090E00E94460160E085E00E94B500F0
:100B500064E670E080E090E00E94460162E370E0AD
:100B600080E090E00E9446016CE271E080E090E05D
:100B70000E94460161E181E00E9491026AE070E01A
:100B800080E090E00E94460165E082E00E949102D0
:100B90006AE070E080E090E00E94460160E083E05F
:100BA0000E9491026AE070E080E090E00E944601BD
:100BB00060E884E00E9491026AE070E080E090E0EA
:100BC0000E94460166E085E00E9491026AE070E0C2
:100BD00080E090E00E94460161E086E00E94910280
:100BE0006AE070E080E090E00E94460160E087E00B
:100BF0000E9491026AE070E080E090E00E9446016D
:100C000060E088E00E9491026AE070E080E090E09D
:100C10000E94460160E089E00E9491026AE070E073
:100C200080E090E00E94460160E08AE00E9491022C
:100C30006AE070E080E090E00E94460160E08BE0B6
:100C40000E9491026AE070E080E090E00E9446011C
:100C500060E48CE00E9491026AE070E080E090E045
:100C60000E9446016BEB8DE00E9491026AE070E009
:100C700080E090E00E94460160E08EE00E949102D8
:100C80006AE070E080E090E00E94460160E08FE062
:100C90000E9491026AE070E080E090E00E944601CC
:100CA00060E080E10E9491026AE070E080E090E004
:100CB0000E94460160E081E10E9491026AE070E0DA
:100CC00080E090E00E94460160E082E10E94910293
:100CD0006AE070E080E090E00E94460160E083E11D
:100CE0000E9491026AE070E080E090E00E9446017C
:100CF00060E084E10E9491026AE070E080E090E0B0
:100D00000E94460160E085E10E9491026AE070E085
:100D100080E090E00E94460161E086E10E9491023D
:100D20006AE070E080E090E00E94460160E087E1C8
:100D30000E9491026AE070E080E090E00E9446012B
:100D400060E088E10E9491026AE070E080E090E05B
:100D50000E94460160E089E10E9491026AE070E031
:100D600080E090E00E94460160E48AE10E949102E6
:100D70006AE070E080E090E00E9446016AE070E086
:100D800080E090E00E94460161E085E00E94B500AD
:100D900064E170E080E090E00E94460181E291E031
:100DA0000E94DB0289E7282E81E0382EC12CD12C4D
:100DB00090E2E92E91E3F92E24E8822E25E8922E86
:100DC000A12CB12CE4EBF0E08491E0EAF0E0749027
:100DD000ECE8F0E06490662071F081110E948C00D4
:100DE000E62DF0E0EE0FFF1FE859FF4FA591B491FB
:100DF0008C91782209F560E087E00E94B50089E7D0
:100E0000682E81E0782E8FEF0E948A02F301819391
:100E10003F01FFE76F16F1E07F06A9F761E087E089
:100E20000E94B5003092CA012092C90181E090E091
:100E30009093C8018093C7018091C7019091C80128
:100E4000019741F51A8219822091C9013091CA0196
:100E500089819A810597D4F48091C5019091C6014A
:100E6000AC014F5F5F4F5093C6014093C501E981CC
:100E7000FA81E20FF31F4081FC01E554FE4F4083ED
:100E800089819A8101969A838983E2CF1092C80161
:100E90001092C7018091C5019091C60105970CF48D
:100EA0001EC18091BC0190E0A0E0B0E0809393016E
:100EB00090939401A0939501B09396018091BD0108
:100EC00090E0A0E0B0E08093970190939801A09308
:100ED0009901B0939A018091BE0190E0A0E0B0E04A
:100EE00080939B0190939C01A0939D01B0939E01E0
:100EF0008091BF0190E0A0E0B0E080939F019093CB
:100F0000A001A093A101B093A20140909301509041
:100F10009401609095017090960180919701909155
:100F20009801A0919901B0919A0140919B01509133
:100F30009C0160919D0170919E0100919F01109113
:100F4000A0012091A1013091A201742C66245524A6
:100F50004424DC019927882784299529A629B729C3
:100F6000802B912BA22BB32B762F652F542F442748
:100F7000842B952BA62BB72B80938F0190939001F8
:100F8000A0939101B093920180918F019091900173
:100F9000A0919101B091920180938B0190938C016B
:100FA000A0938D01B0938E01C0928701D0928801E9
:100FB000E0928901F0928A0160918B0170918C011D
:100FC00080918D0190918E010E94200A20E030E0F6
:100FD00040E251E30E94D50A60938301709384013B
:100FE000809385019093860120E030E04AE754E445
:100FF0000E94D50A60937F017093800180938101E4
:101000009093820186E491E00E94C9028EE491E00F
:101010000E94C902609183017091840180918501D1
:101020009091860147E00E942A0382E591E00E94A8
:10103000DB02209183013091840140918501509120
:10104000860160E178E581EA90E40E94760920E07B
:1010500030E040E85FE30E94040920E034EF45E31C
:1010600057E40E94D50A2B013C0185E591E00E94DE
:10107000C9028EE491E00E94C90247E0C301B201B7
:101080000E942A0380E691E00E94DB0286E691E05E
:101090000E94C9028EE491E00E94C902C301B2011C
:1010A0000E94E8099B01AC012D59334341095109C4
:1010B000AAE5B0E00E94C808A50194010E94A90811
:1010C000CA01B9010E94200A47E00E942A038CE667
:1010D00091E00E94DB0284E191E00E94DB02109229
:1010E000C6011092C50168EE73E080E090E00E94B6
:1010F00046010E94800266CEE4EDF1E01382128286
:1011000088EE93E0A0E0B0E084839583A683B78364
:1011100084E091E09183808385EC90E095878487DB
:1011200084EC90E09787868780EC90E0918B808BB1
:1011300081EC90E0938B828B82EC90E0958B848B9A
:1011400086EC90E0978B868B118E128E138E148E08
:101150000895052E97FB1EF400940E94C00857FDC9
:1011600007D00E94D30807FC03D04EF40C94C008AB
:1011700050954095309521953F4F4F4F5F4F0895C3
:1011800090958095709561957F4F8F4F9F4F0895F3
:101190000E94F508A59F900DB49F900DA49F800D0F
:1011A000911D11240895A1E21A2EAA1BBB1BFD015B
:1011B0000DC0AA1FBB1FEE1FFF1FA217B307E40736
:1011C000F50720F0A21BB30BE40BF50B661F771F8E
:1011D000881F991F1A9469F760957095809590956E
:1011E0009B01AC01BD01CF010895A29FB001B39F47
:1011F000C001A39F700D811D1124911DB29F700D20
:10120000811D1124911D08955058BB27AA270E94C3
:101210001C090C94960A0E94880A38F00E948F0AD2
:1012200020F039F49F3F19F426F40C94850A0EF44B
:10123000E095E7FB0C947F0AE92F0E94A70A58F378
:10124000BA17620773078407950720F079F4A6F5AB
:101250000C94C90A0EF4E0950B2EBA2FA02D0B01A9
:10126000B90190010C01CA01A0011124FF27591BEB
:1012700099F0593F50F4503E68F11A16F040A22FF1
:10128000232F342F4427585FF3CF46953795279562
:10129000A795F0405395C9F77EF41F16BA0B620B61
:1012A000730B840BBAF09150A1F0FF0FBB1F661FA8
:1012B000771F881FC2F70EC0BA0F621F731F841FEB
:1012C00048F4879577956795B795F7959E3F08F011
:1012D000B0CF9395880F08F09927EE0F97958795D3
:1012E00008950E945B0A08F481E008950E948A092B
:1012F0000C94960A0E948F0A58F00E94880A40F0C7
:1013000029F45F3F29F00C947F0A51110C94CA0A0A
:101310000C94850A0E94A70A68F39923B1F3552318
:1013200091F3951B550BBB27AA27621773078407F8
:1013300038F09F5F5F4F220F331F441FAA1FA9F38E
:1013400035D00E2E3AF0E0E832D091505040E6957C
:10135000001CCAF72BD0FE2F29D0660F771F881FDD
:10136000BB1F261737074807AB07B0E809F0BB0BD0
:10137000802DBF01FF2793585F4F3AF09E3F5105E4
:1013800078F00C947F0A0C94CA0A5F3FE4F3983E0D
:10139000D4F3869577956795B795F7959F5FC9F7CD
:1013A000880F911D9695879597F90895E1E0660F4E
:1013B000771F881FBB1F621773078407BA0720F0C7
:1013C000621B730B840BBA0BEE1F88F7E095089530
:1013D0000E94EF096894B1110C94CA0A08950E9402
:1013E000AF0A88F09F5798F0B92F9927B751B0F0FE
:1013F000E1F0660F771F881F991F1AF0BA95C9F799
:1014000014C0B13091F00E94C90AB1E008950C9463
:10141000C90A672F782F8827B85F39F0B93FCCF316
:10142000869577956795B395D9F73EF49095809515
:10143000709561957F4F8F4F9F4F0895E89409C035
:1014400097FB3EF490958095709561957F4F8F4FF7
:101450009F4F9923A9F0F92F96E9BB279395F6950D
:10146000879577956795B795F111F8CFFAF4BB0F8B
:1014700011F460FF1BC06F5F7F4F8F4F9F4F16C0EF
:10148000882311F096E911C0772321F09EE8872F79
:10149000762F05C0662371F096E8862F70E060E035
:1014A0002AF09A95660F771F881FDAF7880F9695AE
:1014B000879597F90895990F0008550FAA0BE0E852
:1014C000FEEF16161706E807F907C0F01216130606
:1014D000E407F50798F0621B730B840B950B39F446
:1014E0000A2661F0232B242B252B21F408950A26AC
:1014F00009F4A140A6958FEF811D811D089597F9EC
:101500009F6780E870E060E008959FEF80EC0895A9
:1015100000240A94161617061806090608950024D2
:101520000A9412161306140605060895092E03944C
:10153000000C11F4882352F0BB0F40F4BF2B11F4C0
:1015400060FF04C06F5F7F4F8F4F9F4F089557FD1F
:101550009058440F551F59F05F3F71F04795880F21
:1015600097FB991F61F09F3F79F0879508951216B8
:1015700013061406551FF2CF4695F1DF08C0161664
:1015800017061806991FF1CF869571056105089415
:101590000895E894BB2766277727CB0197F908952C
:1015A0000E945B0A08F48FEF08950E94E80A0C94E9
:1015B000960A0E94880A38F00E948F0A20F095232C
:1015C00011F00C947F0A0C94850A11240C94CA0A19
:1015D0000E94A70A70F3959FC1F3950F50E0551F25
:1015E000629FF001729FBB27F00DB11D639FAA2778
:1015F000F00DB11DAA1F649F6627B00DA11D661FC7
:10160000829F2227B00DA11D621F739FB00DA11DE7
:10161000621F839FA00D611D221F749F3327A00DA1
:10162000611D231F849F600D211D822F762F6A2F3D
:1016300011249F5750409AF0F1F088234AF0EE0FA2
:10164000FF1FBB1F661F771F881F91505040A9F7CF
:101650009E3F510580F00C947F0A0C94CA0A5F3FAC
:10166000E4F3983ED4F3869577956795B795F7950B
:10167000E7959F5FC1F7FE2B880F911D9695879583
:1016800097F908950E945B0A880B990B0895EE0F55
:10169000FF1F0590F491E02D099481E090E0F8940B
:0816A0000C94520BF894FFCFEB
:1016A8000000000017028001AF015E02E001BE01E8
:1016B800D2010D0A006E616E00696E66006F766673
:1016C800006164733132363220496E697469616C25
:1016D80069736564207375636365737366756C6C91
:1016E800792E2E2E2E00566F6C7461676500203A95
:1016F8002000205600526573697374616E6365003B
:10170800206F686D7300416E676C650020646567C3
:061718007265657300001C
:00000001FF
