:100000000C9462000C948A000C948A000C948A0070
:100010000C948A000C948A000C948A000C948A0038
:100020000C948A000C948A000C948A000C948A0028
:100030000C948A000C948A000C948A000C948A0018
:100040000C94CB020C948A000C943B030C94150383
:100050000C948A000C948A000C948A000C948A00F8
:100060000C948A000C948A000000000023002600F3
:10007000290000000000240027002A0000000000E2
:10008000250028002B0004040404040404040202D4
:100090000202020203030303030301020408102007
:1000A0004080010204081020010204081020000012
:1000B0000008000201000003040700000000000027
:1000C0000000FA0611241FBECFEFD8E0DEBFCDBF7F
:1000D00011E0A0E0B1E0EEE5F0E102C005900D9284
:1000E000A831B107D9F722E0A8E1B1E001C01D9223
:1000F000AF30B207E1F710E0C2E6D0E004C02197CC
:10010000FE010E942208C136D107C9F70E946D0383
:100110000C942D080C940000833081F028F4813079
:1001200099F08230A1F008958730A9F08830B9F0B5
:100130008430D1F4809180008F7D03C08091800055
:100140008F7780938000089584B58F7702C084B53F
:100150008F7D84BD08958091B0008F7703C080911A
:10016000B0008F7D8093B00008951F93CF93DF93ED
:10017000282F30E0F901E255FF4F8491F901E6564E
:10018000FF4FD491F901EA57FF4FC491CC23C9F036
:10019000162F81110E948C00EC2FF0E0EE0FFF1F54
:1001A000E458FF4FA591B4918FB7F894111105C091
:1001B0009C91ED2FE095E92302C0EC91ED2BEC939F
:1001C0008FBFDF91CF911F910895CF93DF9390E080
:1001D000FC01E656FF4F2491FC01EA57FF4F849142
:1001E000882361F190E0880F991FFC01EE58FF4FC2
:1001F000C591D491FC01E458FF4FA591B4916111D0
:1002000009C09FB7F8948881209582238883EC9158
:100210002E230BC0623061F49FB7F8943881822F8F
:10022000809583238883EC912E2B2C939FBF06C04F
:100230008FB7F894E8812E2B28838FBFDF91CF9161
:1002400008953FB7F89480910B0290910C02A09111
:100250000D02B0910E0226B5A89B05C02F3F19F0E4
:100260000196A11DB11D3FBFBA2FA92F982F882736
:10027000820F911DA11DB11DBC01CD0142E0660F91
:10028000771F881F991F4A95D1F708958F929F92E3
:10029000AF92BF92CF92DF92EF92FF926B017C01FF
:1002A0000E9421014B015C01C114D104E104F1045D
:1002B000F1F00E942101DC01CB0188199909AA09FA
:1002C000BB09883E9340A105B10570F321E0C21A35
:1002D000D108E108F10888EE880E83E0981EA11C81
:1002E000B11CC114D104E104F10419F7DDCFFF9072
:1002F000EF90DF90CF90BF90AF909F908F90089538
:10030000CF92DF92EF92FF920F931F93CF93DF93E1
:100310006C017A018B01C0E0D0E0CE15DF0589F0D9
:10032000D8016D918D01D601ED91FC910190F08184
:10033000E02DC6010995892B11F47E0102C021969A
:10034000ECCFC701DF91CF911F910F91FF90EF90FC
:10035000DF90CF900895089580E090E00895FC012B
:10036000538D448D252F30E0842F90E0821B930B1A
:10037000541710F0CF96089501970895FC01918DC0
:10038000828D981761F0828DDF01A80FB11D5D96F7
:100390008C91928D9F5F9F73928F90E008958FEF65
:1003A0009FEF0895FC01918D828D981731F0828D19
:1003B000E80FF11D858D90E008958FEF9FEF089570
:1003C000FC01918D228D892F90E0805C9F4F821BD4
:1003D00091098F739927089581E291E00E94E001CD
:1003E00021E0892B09F420E0822F0895FC01848DFF
:1003F000DF01A80FB11DA35ABF4F2C91848D90E04F
:1004000001968F739927848FA689B7892C93A08929
:10041000B1898C9180648C93938D848D981306C0E0
:100420000288F389E02D80818F7D80830895EF928B
:10043000FF920F931F93CF93DF93EC0181E0888F9E
:100440009B8D8C8D981305C0E889F989808185FD85
:1004500024C0F62E0B8D10E00F5F1F4F0F73112776
:10046000E02E8C8DE8120CC00FB607FCFACFE8899D
:10047000F989808185FFF5CFCE010E94F601F1CF89
:100480008B8DFE01E80FF11DE35AFF4FF0820B8FB9
:10049000EA89FB898081806207C0EE89FF896083D9
:1004A000E889F98980818064808381E090E0DF9130
:1004B000CF911F910F91FF90EF900895CF93DF930D
:1004C000EC01888D8823C9F0EA89FB89808185FD4C
:1004D00005C0A889B9898C9186FD0FC00FB607FCAD
:1004E000F5CF808185FFF2CFA889B9898C9185FFEE
:1004F000EDCFCE010E94F601E7CFDF91CF910895B5
:1005000080E090E0892B29F00E94EC0181110C948D
:10051000000008958EBD00000DB407FEFDCF8EB51E
:100520000895CF93DF93D82FC62F60E087E00E9415
:10053000B50062E070E080E090E00E94460161E07A
:1005400087E00E94B50062E070E080E090E00E94E9
:10055000460160E087E00E94B50062E070E080E064
:1005600090E00E9446018D2F80640E948A0280E004
:100570000E948A028C2F0E948A0262E070E080E072
:1005800090E00E94460161E087E0DF91CF910C94FA
:10059000B5000E9428081F920F920FB60F921124E7
:1005A0002F933F938F939F93AF93BF9380910702B5
:1005B00090910802A0910902B0910A0230910602BE
:1005C00023E0230F2D3720F40196A11DB11D05C096
:1005D00026E8230F0296A11DB11D209306028093E9
:1005E000070290930802A0930902B0930A02809137
:1005F0000B0290910C02A0910D02B0910E02019697
:10060000A11DB11D80930B0290930C02A0930D02CB
:10061000B0930E02BF91AF919F918F913F912F9117
:100620000F900FBE0F901F9018951F920F920FB64C
:100630000F9211242F933F934F935F936F937F9368
:100640008F939F93AF93BF93EF93FF9381E291E0DA
:100650000E94F601FF91EF91BF91AF919F918F9111
:100660007F916F915F914F913F912F910F900FBEAE
:100670000F901F9018951F920F920FB60F92112492
:100680002F938F939F93EF93FF93E0913101F0911C
:1006900032018081E0913701F091380182FD12C072
:1006A000908180913A018F5F8F7320913B01821777
:1006B00051F0E0913A01F0E0EF5DFE4F958F8093AD
:1006C0003A0101C08081FF91EF919F918F912F910D
:1006D0000F900FBE0F901F901895CF93DF93CDB75B
:1006E000DEB727970FB6F894DEBF0FBECDBF789464
:1006F00084B5826084BD84B5816084BD85B5826027
:1007000085BD85B5816085BD80916E0081608093D7
:100710006E00109281008091810082608093810040
:100720008091810081608093810080918000816050
:10073000809380008091B10084608093B1008091AB
:10074000B00081608093B00080917A0084608093D3
:100750007A0080917A00826080937A0080917A009A
:10076000816080937A0080917A00806880937A001B
:100770001092C10060E086E00E94E50061E087E041
:100780000E94E50061E085E00E94E50061E084E010
:100790000E94E500E0913101F091320182E0808316
:1007A000E0912D01F0912E0186E08083E0912F01F0
:1007B000F091300192E8908310923901E091350177
:1007C000F09136018083E0913301F0913401808112
:1007D00080618083E0913301F091340180818860F1
:1007E0008083E0913301F0913401808180688083BF
:1007F000E0913301F091340180818F7D80831FB7B8
:10080000F89480911A01811127C0E0E9F0E0849109
:10081000E4EAF0E09491E82FF0E0EE0FFF1FEE58CD
:10082000FF4FA591B491EC91E92321F461E08AE0B6
:100830000E94B50061E08AE00E94E5008CB580610D
:100840008CBD8CB580648CBD61E08DE00E94E500BC
:1008500061E08BE00E94E50080911A018F5F809338
:100860001A011FBF8CB58F7D8CBD8CB5837F8460D2
:100870008CBD8CB58C7F81608CBD8DB581608DBD4C
:1008800061E084E00E94B50064E670E080E090E002
:100890000E94460160E084E00E94B50064E670E0DA
:1008A00080E090E00E94460161E084E00E94B50093
:1008B00064E670E080E090E00E94460164E670E04B
:1008C00080E090E00E94460160E085E00E94B50073
:1008D00064E670E080E090E00E94460162E370E030
:1008E00080E090E00E9446016CE271E080E090E0E0
:1008F0000E94460161E181E00E9491026AE070E09D
:1009000080E090E00E94460165E082E00E94910252
:100910006AE070E080E090E00E94460160E083E0E1
:100920000E9491026AE070E080E090E00E9446013F
:1009300060E884E00E9491026AE070E080E090E06C
:100940000E94460166E085E00E9491026AE070E044
:1009500080E090E00E94460161E086E00E94910202
:100960006AE070E080E090E00E94460160E087E08D
:100970000E9491026AE070E080E090E00E944601EF
:1009800060E088E00E9491026AE070E080E090E020
:100990000E94460160E089E00E9491026AE070E0F6
:1009A00080E090E00E94460160E08AE00E949102AF
:1009B0006AE070E080E090E00E94460160E08BE039
:1009C0000E9491026AE070E080E090E00E9446019F
:1009D00060E48CE00E9491026AE070E080E090E0C8
:1009E0000E9446016BEB8DE00E9491026AE070E08C
:1009F00080E090E00E94460160E08EE00E9491025B
:100A00006AE070E080E090E00E94460160E08FE0E4
:100A10000E9491026AE070E080E090E00E9446014E
:100A200060E080E10E9491026AE070E080E090E086
:100A30000E94460160E081E10E9491026AE070E05C
:100A400080E090E00E94460160E082E10E94910215
:100A50006AE070E080E090E00E94460160E083E19F
:100A60000E9491026AE070E080E090E00E944601FE
:100A700060E084E10E9491026AE070E080E090E032
:100A80000E94460160E085E10E9491026AE070E008
:100A900080E090E00E94460161E086E10E949102C0
:100AA0006AE070E080E090E00E94460160E087E14B
:100AB0000E9491026AE070E080E090E00E944601AE
:100AC00060E088E10E9491026AE070E080E090E0DE
:100AD0000E94460160E089E10E9491026AE070E0B4
:100AE00080E090E00E94460160E48AE10E94910269
:100AF0006AE070E080E090E00E9446016AE070E009
:100B000080E090E00E94460161E085E00E94B5002F
:100B100064E170E080E090E00E9446018CE8282EBD
:100B200080E0382EEE24E394F12C812C912C20E2ED
:100B3000A22E21E3B22E6E0185E0C80ED11CE4EB9B
:100B4000F0E08491E0EAF0E07490F10164906620B6
:100B500071F081110E948C00E62DF0E0EE0FFF1F76
:100B6000E859FF4FA591B4918C91782209F560E086
:100B700087E00E94B5008BE1682E81E0782E8FEF30
:100B80000E948A02F30181933F01F1E26F16F1E0C6
:100B90007F06A9F761E087E00E94B5008BE191E054
:100BA0009093050280930402F0920302E092020205
:100BB0008091020290910302019741F51E821D82ED
:100BC00020910402309105028D819E810597D4F415
:100BD0008091000290910102AC014F5F5F4F5093F2
:100BE000010240930002ED81FE81E20FF31F40817C
:100BF000FC01EA50FE4F40838D819E8101969E83C9
:100C00008D83E2CF109203021092020280910002C3
:100C10009091010205970CF4E6C08091F70190E0F5
:100C2000A0E0B0E08093CE019093CF01A093D001DB
:100C3000B093D1018091F80190E0A0E0B0E0809302
:100C4000D2019093D301A093D401B093D5018091A8
:100C5000F90190E0A0E0B0E08093D6019093D70135
:100C6000A093D801B093D9018091FA0190E0A0E05F
:100C7000B0E08093DA019093DB01A093DC01B093A4
:100C8000DD014090CE015090CF016090D001709076
:100C9000D1018091D2019091D301A091D401B09162
:100CA000D5014091D6015091D7016091D801709142
:100CB000D9010091DA011091DB012091DC01309122
:100CC000DD01742C662455244424DC0199278827EF
:100CD00084299529A629B729802B912BA22BB32BE8
:100CE000762F652F542F4427842B952BA62BB72BBB
:100CF0008093CA019093CB01A093CC01B093CD0116
:100D00008091CA019091CB01A091CC01B091CD010D
:100D10008093C6019093C701A093C801B093C90105
:100D20008092C2019092C301A092C401B092C50109
:100D30006091C6017091C7018091C8019091C9016D
:100D40000E94290720E030E040E251E30E9464075E
:100D50006093BE017093BF018093C0019093C10165
:100D600069837A838B839C8342E050E062E171E087
:100D700081E291E00E948001FE0131963F01F30182
:100D800081913F01682F62956F708F706A3010F407
:100D9000605D01C0695C8A3010F420E301C027E384
:100DA000280FE0912101F09122010190F081E02DC6
:100DB00081E291E02F830995E0912101F0912201D8
:100DC0000190F081E02D2F81622F81E291E0099561
:100DD0006C147D04A1F642E050E065E171E081E22F
:100DE00091E00E94800110920102109200020E9484
:100DF0008002A5CEE1E2F1E01382128288EE93E058
:100E0000A0E0B0E084839583A683B78384E091E07B
:100E10009183808385EC90E09587848784EC90E0D3
:100E20009787868780EC90E0918B808B81EC90E0B7
:100E3000938B828B82EC90E0958B848B86EC90E098
:100E4000978B868B118E128E138E148E0895E894D4
:100E500009C097FB3EF490958095709561957F4F02
:100E60008F4F9F4F9923A9F0F92F96E9BB279395B0
:100E7000F695879577956795B795F111F8CFFAF4C0
:100E8000BB0F11F460FF1BC06F5F7F4F8F4F9F4FF1
:100E900016C0882311F096E911C0772321F09EE84F
:100EA000872F762F05C0662371F096E8862F70E0B5
:100EB00060E02AF09A95660F771F881FDAF7880F8F
:100EC0009695879597F908950E9477070C94E807FF
:100ED0000E94DA0738F00E94E10720F0952311F014
:100EE0000C94D1070C94D70711240C941C080E9471
:100EF000F90770F3959FC1F3950F50E0551F629F5E
:100F0000F001729FBB27F00DB11D639FAA27F00D62
:100F1000B11DAA1F649F6627B00DA11D661F829F89
:100F20002227B00DA11D621F739FB00DA11D621F6E
:100F3000839FA00D611D221F749F3327A00D611D8B
:100F4000231F849F600D211D822F762F6A2F11246D
:100F50009F5750409AF0F1F088234AF0EE0FFF1FA0
:100F6000BB1F661F771F881F91505040A9F79E3FF7
:100F7000510580F00C94D1070C941C085F3FE4F3FA
:100F8000983ED4F3869577956795B795F795E7954D
:100F90009F5FC1F7FE2B880F911D9695879597F956
:100FA000089597F99F6780E870E060E008959FEFEB
:100FB00080EC089500240A941616170618060906F0
:100FC000089500240A9412161306140605060895BF
:100FD000092E0394000C11F4882352F0BB0F40F447
:100FE000BF2B11F460FF04C06F5F7F4F8F4F9F4F87
:100FF000089557FD9058440F551F59F05F3F71F009
:101000004795880F97FB991F61F09F3F79F087956F
:101010000895121613061406551FF2CF4695F1DFF8
:1010200008C0161617061806991FF1CF8695710588
:10103000610508940895E894BB2766277727CB01BC
:1010400097F90895EE0FFF1F0590F491E02D099494
:0E10500081E090E0F8940C942D08F894FFCF06
:10105E000000000017028001AF015E02E001BE0138
:08106E00D201663A000D0A00F0
:00000001FF
